:020000040800F2
:10E00000B022002045E1000841EE0008FDEC0008C8
:10E0100061ED000855E20008BD00010800000000A5
:10E0200000000000000000000000000091F3000864
:10E030001DE5000800000000C5EE0008E9F3000837
:10E040005FE100085FE100085FE100085FE10008B0
:10E050005FE100085FE100085FE100085FE10008A0
:10E060005FE100085FE100085FE100085FE1000890
:10E070005FE100085FE100085FE100085FE1000880
:10E080005FE100085FE10008B1E100085FE100081E
:10E0900015FD00085FE100085FE100085FE100088E
:10E0A0005FE100088DF400085FE100085FE100080F
:10E0B0005FE100085FE100085FE100085FE1000840
:10E0C0005FE100085FE100085FE100085FE1000830
:10E0D0005FE100085FE100083DFC00085FE1000827
:10E0E0005FE100085FE100085FE100085FE1000810
:10E0F0005FE100085FE100085FE100085FE1000800
:10E100005FE100085FE100085FE100085FE10008EF
:10E110005FE100085FE100085FE100085FE10008DF
:10E120005FE100085FE100085FE100085FE10008CF
:10E13000DFF80CD000F02AF80048004739550108F4
:10E14000B02200200648804706480047FEE7FEE769
:10E15000FEE7FEE7FEE7FEE7FEE7FEE7FEE7FEE797
:10E16000F1F3000831E1000840EA01039B0703D006
:10E1700009E008C9121F08C0042AFAD203E011F806
:10E18000013B00F8013B521EF9D27047064C074D87
:10E1900006E0E06840F0010394E807009847103477
:10E1A000AC42F6D3FFF7C8FF008D0108208D0108AF
:10E1B00080B584B042F20040C4F201000121039016
:10E1C00003F024F80421039802F0E8FE00281AD096
:10E1D000FFE742F20040C4F20100042102F0D2FE47
:10E1E00041F66430C2F20000029002F0E3FA0298B5
:10E1F000B0F90010B0F9022041F68810C2F2000018
:10E2000006F0CCFAFFE742F60000C4F20100042158
:10E2100002F0C4FE00281AD0FFE742F60000C4F264
:10E220000100042102F0AEFE41F66430C2F20000AB
:10E23000019002F087FC0198B0F90410B0F90620B3
:10E2400041F2D070C2F2000006F0A8FAFFE704B075
:10E2500080BD0000FFE7FEE7B0B596B09C4696464D
:10E260000C4605468DF857008DF856108DF8552050
:10E27000ADF8523040F21970CDF82CC0CDF828E03E
:10E280000994089507F03AFE40F2026007F036FE66
:10E2900040F2036007F032FE4FF4C06007F02EFE3C
:10E2A00040F60040C4F20100482103224FF480737D
:10E2B0000790069206F0E0FE18214FF400730798CD
:10E2C000069A06F0D9FE4FF4EA100121059106F0F6
:10E2D00085FF28214FF48060079A04901046069A23
:10E2E000049B06F0C9FE0798049906F0BDFE46F2AD
:10E2F0000040C4F20000039003F0FAF800208DF80B
:10E30000480005998DF849108DF84A108DF84C0099
:10E310008DF84D008DF844009DF857208DF845206C
:10E320009DF856208DF846209DF855208DF8472001
:10E33000BDF85220ADF84E2011A9039A0290104664
:10E3400003F09CF90299ADF83A10ADF83C10059A2B
:10E35000ADF83E20ADF83010ADF83210ADF8341005
:10E36000ADF83610ADF838108DF840200CAB0190A8
:10E37000184603F0D3F80221039803F071FA16B09F
:10E38000B0BD000080B582B0412100200190019A0B
:10E39000019B00F05FFC02B080BD000080B540F240
:10E3A0000202C2F200020020AA21032300F052FC64
:10E3B00080BD000080B540F6F010C2F2000000F011
:10E3C000CBFB002859D1FFE740F6A810C2F20000AD
:10E3D0000078AA2848D1FFE740F6A810C2F2000052
:10E3E0004068007855283FD1FFE740F6A810C2F2F8
:10E3F000000040684078642836D1FFE740F6A81056
:10E40000C2F2000040688078C8282DD1FFE741F2B1
:10E410001070C2F200000178013101700078052807
:10E4200021DBFFE740F61400C4F201004FF4006165
:10E4300001604FF480510160FFF7B0FF052003F049
:10E4400035FB262007F046FA122007F043FA46F281
:10E450000040C4F20000022103F0F6F94FF0006022
:10E4600006F054FFFFE7FFE740F6A810C2F20000F5
:10E470000021417200F0EAFBFFE780BD83B002900B
:10E48000019100208DF80300FFE70198012814DBBB
:10E49000FFE79DF8030002990978484047F6E641F6
:10E4A000C0F60101085C8DF803000298013002906B
:10E4B000FFE7019801380190E7E79DF8030003B0FA
:10E4C0007047000080B586B005900491002003904D
:10E4D0000598049908440290FFE70598029988423C
:10E4E0000AD2FFE7BDF80C0005994A1C059209788D
:10E4F00001F0ACFD0390F0E7BDF80C0000210191A4
:10E5000001F0A4FD0390BDF80C00019901F09EFDFF
:10E510000390BDF80C0006B080BD000070470000FD
:10E5200083B00290029800F178400090009840F289
:10E53000FF71884300F100600190019803B07047BB
:10E5400080B588B006900591049200208DF80F00E8
:10E550008DF80E00029001900698B0F1006F06D37E
:10E56000FFE79DF81800C007002804D0FFE702204D
:10E570008DF81F0068E006F011F8069802900698E2
:10E58000049900EB8100019002984FF6FF71C1F6EB
:10E59000FE71884222D8FFE7FFE70298019988427E
:10E5A0001BD2FFE7029800680130002811D0FFE776
:10E5B0004DF60000C0F600000090009805F03CFF0A
:10E5C0008DF80F009DF80F00002801D0FFE704E050
:10E5D000FFE7029804300290DFE7FFE79DF80F00A5
:10E5E000002826D1FFE7FFE70698019988421FD24D
:10E5F000FFE706980599096806F00CF8002804D092
:10E60000FFE705208DF80E0012E0069800680599D6
:10E610000968884204D0FFE704208DF80E0007E067
:10E62000FFE7069804300690059804300590DBE774
:10E6300003E003208DF80E00FFE705F0E1FE9DF8F2
:10E640000E008DF81F00FFE79DF81F0008B080BD89
:10E6500080B584B003900291019200200090FFE702
:10E660000098019988420FD2FFE7039800F00EF856
:10E670000299009A21F81200039802300390FFE7F4
:10E68000009801300090EBE704B080BD81B00090AD
:10E690000098008801B0704780B586B0059004915D
:10E6A000039200208DF80B00019000900598B0F1C6
:10E6B000006F06D3FFE79DF81400C007002801D0C3
:10E6C000FFE748E005F06AFF059801900598039977
:10E6D00000EB4100009001984FF6FF71C1F6FE710A
:10E6E000884219D8FFE7FFE701980099884212D2C3
:10E6F000FFE70198FFF714FF05F09EFE8DF80B0071
:10E700009DF80B00002801D0FFE704E0019800F518
:10E7100000600190E8E7FFE79DF80B00002817D1A3
:10E72000FFE7FFE705980099884210D2FFE70598B8
:10E730000499098805F0D2FD002801D0FFE706E022
:10E74000059802300590049802300490EAE7FFE74C
:10E7500005F056FEFFE706B080BD000080B588B02A
:10E7600041F2F410C2F200004078642840F09B802F
:10E77000FFE741F24C70C2F200000078EE2800F092
:10E780009180FFE741F28C70C2F200000078EE2821
:10E7900000F08880FFE741F2F410C2F200008178B7
:10E7A00041F26C72C2F200021170817841F2AC72D7
:10E7B000C2F200021170C078512807DBFFE741F276
:10E7C000F410C2F200005021C170FFE741F2F410D2
:10E7D000C2F200008079512807DBFFE741F2F41014
:10E7E000C2F2000050218171FFE741F2F410C2F241
:10E7F00000008078032814D0FFE741F2F410C2F241
:10E800000000C178C622514341F26C73C2F200038A
:10E8100059608079504341F2AC71C2F20001486006
:10E820000CE041F26C70C2F2000040F2DE31416057
:10E8300041F2AC70C2F200004160FFE741F2F41017
:10E84000C2F20000C079012807D1FFE740F6B410FA
:10E85000C2F2000000210160FFE741F2F410C2F2B1
:10E860000000C079022807D1FFE740F6B810C2F2D5
:10E87000000000210160FFE741F2F410C2F2000045
:10E88000092107900846079A0691114603F0FAF805
:10E89000079948720846069901F0A4F900200799E3
:10E8A000C871FFE7FFE741F2F410C2F200004078C0
:10E8B000502840F0E480FFE741F2F410C2F200007B
:10E8C00080781F2807DBFFE741F2F410C2F2000056
:10E8D0001E218170FFE741F2F410C2F2000081783E
:10E8E00001EB8101890040F20E02C2F200021180A8
:10E8F000C078C92807DBFFE741F2F410C2F200003C
:10E90000C821C170FFE741F2F410C2F20000C178E3
:10E9100001EB8101890040F22802C2F2000211805D
:10E920000079332807DBFFE741F2F410C2F2000060
:10E9300032210171FFE741F2F410C2F200000179C7
:10E94000C902890844F62512C2F29242A1FB0212C2
:10E9500040F23C03C2F200031A804079332807DBFF
:10E96000FFE741F2F410C2F2000032214171FFE7EB
:10E9700041F2F410C2F200004179C902890844F65C
:10E980002512C2F29242A1FB021240F20A03C2F225
:10E9900000031A808079072807DBFFE741F2F410B3
:10E9A000C2F2000006218171FFE741F2F410C2F2C9
:10E9B00000008179C622514340F24002C2F20002B7
:10E9C0001180C079032807DCFFE741F2F410C2F29E
:10E9D00000000421C171FFE741F2F410C2F200000F
:10E9E000C0790F2807DBFFE741F2F410C2F2000004
:10E9F0000E21C171FFE741F2F410C2F20000C179AB
:10EA0000C622514340F21002C2F200021180007A85
:10EA1000292807DBFFE741F2F410C2F200002821A9
:10EA20000172FFE741F2F410C2F20000007A0228FE
:10EA300007DCFFE741F2F410C2F20000032101728B
:10EA4000FFE741F2F410C2F20000017AC6225143FE
:10EA500040F20602C2F20002118009210590084628
:10EA6000059A0491114603F00DF80599487208467D
:10EA7000049901F0B7F800200599C871FFE741F249
:10EA8000F410C2F200004078512833D1FFE741F280
:10EA9000F410C2F200008078C92807DBFFE741F2DA
:10EAA000F410C2F20000C8218170FFE741F2F410B7
:10EAB000C2F20000817801EB8101890040F23A0244
:10EAC000C2F20002118000218170C1700171417198
:10EAD0008171C1710172092103900846039A029164
:10EAE000114602F0CFFF039948720846029901F0DF
:10EAF00079F8FFE741F2F410C2F2000040785F2895
:10EB000027D1FFE740F20C00C2F200000168090AB9
:10EB100041F2F412C2F2000291700068D07040F22B
:10EB20000000C2F200000168090A1171006850710A
:10EB300000209071D071107209200190114600924E
:10EB400002F0A0FF009948720846019901F04AF8C6
:10EB5000FFE708B080BD000080B584B00290029845
:10EB600090F80208012804D0FFE704208DF80F0078
:10EB700068E00298002180F80218029800780028C6
:10EB800006D0FFE700F062F802208DF80F0059E090
:10EB90000298B0F80008032806DCFFE700F056F8FA
:10EBA00001208DF80F004DE00298B0F800180844DD
:10EBB00010F8020C0002ADF806000298B0F8001838
:10EBC000084410F8010CBDF806100844ADF8060022
:10EBD0000298B0F800180239FFF774FCBDF806106F
:10EBE000884206D0FFE700F031F803208DF80F00CF
:10EBF00028E00298407840F6A811C2F2000108709F
:10EC00000298B0F8000804380872087A002807D182
:10EC1000FFE740F6A810C2F200000021416007E0C3
:10EC20000298023040F6A811C2F200014860FFE7E6
:10EC300040F6A810C2F200000121417200208DF8B8
:10EC40000F00FFE79DF80F0004B080BD80B500F015
:10EC5000B7FF80BD10B584B09C468E4604468DF843
:10EC60000F008DF80E100292ADF806309DF80F00DF
:10EC700040F2DE01C2F2000108709DF80E004870FB
:10EC8000BDF8060001280BDBFFE70299BDF806205E
:10EC900040F2DE00C2F200000230FFF765FAFFE743
:10ECA000BDF80600811C40F2DE00C2F200000090B8
:10ECB000FFF708FCADF804009DF80500BDF806104C
:10ECC000009A11448870BDF80400BDF80610114484
:10ECD000C870BDF80600043081B2104600F082FF13
:10ECE00004B010BD40F66810C2F20000704700008A
:10ECF00041F65430C2F2000000687047FFE7FEE7BB
:10ED000085B004900498009000980168426880687B
:10ED100003900292019140F66810C2F2000001993E
:10ED2000029A039B836042600160012005B0704736
:10ED300080B584B003900020029001900090039869
:10ED40000168426880680290019200910020C0F63C
:10ED5000030069460C22FFF79FFC012004B080BD30
:10ED6000FFE7FEE780B584B00020C0F60300FFF7A0
:10ED7000C7FF40F66811C2F20001496840F21C0268
:10ED8000C2F20002526891421BD0FFE740F21C0021
:10ED9000C2F20000406840F66811C2F2000148600B
:10EDA000FFF7A0FFFFF7C4FF01210390084602917F
:10EDB00002F07CFE40F67810C2F200000299017069
:10EDC000FFE740F66810C2F20000008840F21C0124
:10EDD000C2F20001098888421AD0FFE740F21C0005
:10EDE000C2F20000008840F66811C2F200010880FB
:10EDF000FFF778FFFFF79CFF01210190084602F022
:10EE000055FE40F67810C2F2000002210170FFE7C3
:10EE100040F66810C2F20000B0F908000130002886
:10EE200007D1FFE740F67810C2F20000032101701D
:10EE3000FFE740F67810C2F20000007804B080BD11
:10EE40007047000080B582B0142001210191019A21
:10EE500006F056FD02B080BD82B002468DF8070074
:10EE600000919DF90700B0F1FF3F0CDCFFE700982F
:10EE700000019DF8071001F00F014EF61452CEF27A
:10EE80000002885409E0009800019DF907104EF235
:10EE90000042CEF200028854FFE702B07047000043
:10EEA000BFF34F8F4EF60C50CEF20000016801F414
:10EEB000E0610422C0F2FA5211430160BFF34F8FA8
:10EEC000FFE7FEE77047000080B586B040F20260C1
:10EED00007F014F840F60000C4F2010010210322EC
:10EEE0004FF40063059004910392029306F0C4F876
:10EEF0004FF480500599019008460499039A019BAC
:10EF000006F0BAF840F61000C4F201000299016060
:10EF1000019A026006B080BD80B586B0059004916C
:10EF2000039241F22820C2F200000190FFE701980D
:10EF30000078002803D1FFE701F0E8F8FFE7FFE7DA
:10EF4000EFF311804FF0200181F3118800900598B4
:10EF50000499039A00F008F80290009880F3118851
:10EF6000029806B080BD000080B58AB00990089173
:10EF7000079208980490099800EB400041F228217C
:10EF8000C2F2000101EBC000183003900398406901
:10EF90000028029008D0FFE70298012819D0FFE767
:10EFA000029802282CD032E0039801F0FDF8059079
:10EFB00005980799884203D2FFE70020069007E0F2
:10EFC0000798069003980499079A01F08DFBFFE7D4
:10EFD00020E0039801F0E8F8059005980799884229
:10EFE00003D2FFE70598019002E007980190FFE740
:10EFF0000198069003980499069A01F075FB09E0C0
:10F0000003980499079A01F0FDFA069002E00020A7
:10F010000690FFE706980AB080BD000082B080B578
:10F0200084B0079306920390029106A8009003987B
:10F0300002996A4600F008F80190019804B0BDE812
:10F04000804002B07047000080B5A4B023902291A8
:10F05000219207A81B9040201C9000201D9023990E
:10F060001F911E90FFE7229800788DF88300229868
:10F07000013022909DF88300002801D1FFE771E163
:10F080009DF88300252840F06081FFE7002018905C
:10F0900001201A90FFE7229800788DF883009DF8F0
:10F0A0008300233801460D28049129D80499DFE80C
:10F0B00001F01F2727272727272717270727270F8D
:10F0C000189840F0010018902298013022901AE020
:10F0D000189840F00200189022980130229012E017
:10F0E000189840F0040018902298013022900AE00D
:10F0F000189840F00800189022980130229002E001
:10F1000000201A90FFE7FFE71A980028C3D1FFE715
:10F1100000201790FFE7229800788DF883009DF873
:10F120008300302805DBFFE79DF883003A2801DBE8
:10F13000FFE710E0229801302290179800EB800042
:10F140009DF8831001EB400030381790FFE7012055
:10F150000028E0D1FFE700201990229800788DF870
:10F1600083009DF883002E2825D1FFE722980130E7
:10F170002290FFE7229800788DF883009DF88300A5
:10F18000302805DBFFE79DF883003A2801DBFFE725
:10F1900010E0229801302290199800EB80009DF831
:10F1A000831001EB400030381990FFE70120002860
:10F1B000E0D1FFE7FFE7229800788DF88300FFE7B2
:10F1C0009DF883006C2805D0FFE79DF88300682830
:10F1D00008D1FFE7229801302290229800788DF81C
:10F1E000830000E004E0FFE701200028E8D1FFE70A
:10F1F0009DF8830001462528039100F09C80FFE7DD
:10F20000039858284FD0FFE70398632814D0FFE7EE
:10F21000039864281FD0FFE70398702877D0FFE792
:10F220000398732853D0FFE70398752827D0FFE78A
:10F230000398782837D083E0219801680A1D02607E
:10F2400008681A901A988DF81B009DF81B101BA8CF
:10F2500001F09CF975E0219801680A1D02600868B8
:10F260001A901A99199B1798189AEC46CCF8042012
:10F27000CCF800001BA80A2200F0B6FF61E021983C
:10F2800001680A1D026008681A901A99199B17985C
:10F29000189AEC46CCF80420CCF800001BA80A22EF
:10F2A00001F094F84DE0219801680A1D0260086899
:10F2B0001A901A99199B1798189AEC46CCF80420C2
:10F2C000CCF800001BA8102201F080F839E021984A
:10F2D00001680A1D026008680590FFE7059800783C
:10F2E0008DF883000598013005909DF88300002873
:10F2F00001D1FFE70AE09DF883101BA801F046F951
:10F30000FFE71E98B0F1FF3FE8DCFFE719E0219826
:10F3100001680A1D026008681A901A99684600225E
:10F320004260082202601BA8102302921A46029B28
:10F3300001F04CF805E01BA8252101F027F900E0B9
:10F34000FFE722980130229005E09DF883101BA86A
:10F3500001F01CF9FFE7FFE71E98B0F1FF3F3FF710
:10F3600082AEFFE71E9801280FDBFFE71D980028FB
:10F3700006D0FFE723981D9A07A9FFF7CDFDFFE709
:10F380001D981E9908441E90FFE71E9824B080BD6A
:10F390007047000080B582B0009000980138B0F14D
:10F3A000807F03D3FFE70120019019E00098013826
:10F3B0004EF21401CEF2000108604FF0FF300F2131
:10F3C000FFF74AFD4EF21800CEF200000021016066
:10F3D0004EF21000CEF20000072202600191FFE71A
:10F3E000019802B080BD000080B502F073FB80BDC3
:10F3F00080B582B04EF68850CEF20000016841F42C
:10F400007001016041F20000C4F20200016841F0A5
:10F410000101016041F20400C4F20200016841F000
:10F420008001016000200190FFE7019844F61F6110
:10F43000884205D8FFE7FFE7019801300190F4E723
:10F4400041F20400C4F202000021016041F22C00EC
:10F45000C4F20200016041F20000C4F2020001683F
:10F460004FF6FF72CFF6F6621140016041F20801DB
:10F47000C4F202014FF41F020A60016821F48021E6
:10F48000016006F025FF02B080BD000080B542F6A5
:10F490000040C4F20100012107F084FF012808D1D7
:10F4A000FFE742F60040C4F20100012107F06EFFC1
:10F4B000FFE780BD2DE9F04F83B040F6DC10C2F2CB
:10F4C00000000078632808DCFFE740F6DC10C2F299
:10F4D000000001780131017006E040F6DC10C2F254
:10F4E000000000210170FFE741F2EC60C2F2000071
:10F4F000C1880290084605F093FD40F23001C2F247
:10F500000001086002980088019105F09BFD40F21F
:10F510001401C2F20001086002984088009105F0D1
:10F5200091FD40F21801C2F20001086040F6DC10C3
:10F53000C2F2000002784CF6CD43CCF6CC43A2FBDD
:10F5400003CE4FEADE0E0EEB8E0EA2EB4E0240F61D
:10F550007C1EC2F2000E5EF82220DEF82840A21ABD
:10F56000CEF82820019A14680578A5FB0367FF08E8
:10F5700007EB8707A5EB47054EF825401468DEF832
:10F5800028502C44CEF82840DEF828E046F2676484
:10F59000C6F266645EFB04FE4FEAAE0505EBDE7E56
:10F5A000C2F800E090F800E0AEFB0357FF0807EB5D
:10F5B0008707AEEB470E40F6E407C2F2000757F8A4
:10F5C0002EE0D7F82880A8EB0E0EC7F828E0DDF86B
:10F5D00000E0DEF8008090F80090A9FB03AB4FEA52
:10F5E000DB0B0BEB8B0BA9EB4B0947F82980DEF803
:10F5F0000080D7F82890C844C7F82880BF6A57FB16
:10F6000004F74FEAA70808EBD777CEF80070077821
:10F61000A7FB03894FEAD90909EB8909A7EB490739
:10F6200040F63C19C2F2000959F82770D9F828B001
:10F63000ABEB0707C9F828700F680078A0FB033B05
:10F640004FEADB0B0BEB8B0BA0EB4B0049F8207068
:10F650000868D9F828703844C9F82800D9F8280073
:10F6600050FB04F0841004EBD0700860106865282B
:10F670001FDBFFE740F2D700C2F20000017801F083
:10F68000F3010170017841F04001017040F2D800AF
:10F69000C2F20000017801F0F3010170017841F03D
:10F6A0004001017040F2DC00C2F200000321017051
:10F6B00066E040F23000C2F2000000685B2817DB11
:10F6C000FFE740F2D700C2F20000017841F04401A8
:10F6D000017040F2D800C2F20000017841F044010C
:10F6E000017040F2DC00C2F200000221017046E02D
:10F6F00040F23000C2F2000000685A2827DCFFE721
:10F7000040F23000C2F20000006856281FDBFFE71D
:10F7100040F2D700C2F20000017801F0F30101705D
:10F72000017841F00401017040F2D800C2F20000FB
:10F73000017801F0F3010170017841F004010170DA
:10F7400040F2DC00C2F200000121017016E040F23C
:10F75000D700C2F20000017801F0F301017040F21D
:10F76000D800C2F20000017801F0F301017040F20C
:10F77000DC00C2F2000000210170FFE7FFE7FFE7B5
:10F7800040F21400C2F2000000686F2813DBFFE7AC
:10F7900040F2D700C2F20000017801F0FC010170D4
:10F7A000017841F01001017040F2DA00C2F200006D
:10F7B000032101704AE040F21400C2F20000006828
:10F7C00065280FDBFFE740F2D700C2F200000178A6
:10F7D00041F01101017040F2DA00C2F20000022192
:10F7E000017032E040F21400C2F2000000686428A8
:10F7F0001BDCFFE740F21400C2F2000000685B2847
:10F8000013DBFFE740F2D700C2F20000017801F0FD
:10F81000FC010170017841F00101017040F2DA0051
:10F82000C2F20000012101700EE040F2D700C2F2E6
:10F830000000017801F0FC01017040F2DA00C2F230
:10F84000000000210170FFE7FFE7FFE740F218002A
:10F85000C2F2000000686F2813DBFFE740F2D80017
:10F86000C2F20000017801F0FC010170017841F062
:10F870001001017040F2DB00C2F2000003210170B0
:10F880004AE040F21800C2F20000006865280FDB71
:10F89000FFE740F2D800C2F20000017841F0110108
:10F8A000017040F2DB00C2F200000221017032E080
:10F8B00040F21800C2F20000006864281BDCFFE779
:10F8C00040F21800C2F2000000685B2813DBFFE77B
:10F8D00040F2D800C2F20000017801F0FC01017092
:10F8E000017841F00101017040F2DB00C2F200003A
:10F8F000012101700EE040F2D800C2F20000017850
:10F9000001F0FC01017040F2DB00C2F200000021B6
:10F910000170FFE7FFE7FFE740F2DA00C2F2000004
:10F920000078032810D0FFE740F2DB00C2F20000AD
:10F930000078032808D0FFE740F2DC00C2F20000A4
:10F94000007803280DD1FFE740F2D600C2F2000094
:10F950000321017040F6CA10C2F2000001210170BB
:10F9600061E040F2DA00C2F200000078022810D014
:10F97000FFE740F2DB00C2F200000078022808D066
:10F98000FFE740F2DC00C2F20000007802280DD14F
:10F99000FFE740F2D600C2F200000221017040F6FB
:10F9A000CA10C2F20000012101703BE040F2DA000F
:10F9B000C2F200000078012810D0FFE740F2DB001F
:10F9C000C2F200000078012808D0FFE740F2DC0016
:10F9D000C2F200000078012817D1FFE740F6CA10F4
:10F9E000C2F200000078012807D1FFE740F2D600FC
:10F9F000C2F200000221017006E040F2D600C2F21D
:10FA0000000001210170FFE70BE040F2D600C2F2D6
:10FA100000000021017040F6CA10C2F2000001701F
:10FA2000FFE7FFE7FFE703B0BDE8F08F2DE9F04304
:10FA3000A1B020904FF4A06006F060FA40F211707F
:10FA400006F05CFA40F2026006F058FA40F6000058
:10FA5000C4F20100182103220423119010920F9385
:10FA600005F00AFB082011990E9008460F99109A8C
:10FA70000E9B05F001FB44F20040C4F200000D9023
:10FA800007F0D0FF20990D9807F05EFF0D980F99B1
:10FA900008F0BEF80D980E9908F0D0F82620002145
:10FAA0000C910C9A05F02CFF0D9808F043F84FF4D8
:10FAB00041710D9808F068F80020C4F20200062198
:10FAC0000B900A9102F0E4F801208DF87E008DF889
:10FAD0007D000C991C910C221D9244F20442C4F248
:10FAE000000219928DF87C101A914FF440531E9326
:10FAF000DDF864C0DDF868E01B9C1C9D1D9E1E9F08
:10FB0000DDF87C80E946C9F81080C9F80C70C9F8A6
:10FB10000860C9F80450C9F800400B9C09902046C1
:10FB20000A99089262460793734602F0FBF80B9815
:10FB30000A9902F023F805200B99069008460699C9
:10FB400002F0A6F80C988DF8620040F6F011C2F2AF
:10FB50000001149109998DF8611015904FF400621D
:10FB60001692089A12928DF860001390079B1793D3
:10FB7000129A139BDDF850C0DDF854E0169C179DD7
:10FB8000189E6F463E61FD60BC60C7F804E0C7F890
:10FB900000C00B98069902F0C5F80B98069902F080
:10FBA0000BF80B98069901F0CBFF80210D9807F018
:10FBB000ABFF40210D9807F091FF21B0BDE8F08325
:10FBC00080B582B00020C4F2020005214FF400622B
:10FBD0000190009102F09EF90198009901F0B0FFA8
:10FBE00002B080BD80B584B00A460390ADF80A101B
:10FBF000FFE744F20040C4F20000072107F0A4FF31
:10FC0000002801D1FFE7F4E70020C4F2020006213A
:10FC10000190009101F076FF03988C21C4F202015B
:10FC20000860BDF80A008421C4F20201086001984E
:10FC3000009901F085FF04B080BD000080B584B05C
:10FC400044F20040C4F2000040F20431C0F204016A
:10FC500007F0ACFF00285AD0FFE744F20040C4F29E
:10FC6000000007F0D7FE0021C4F202010522029035
:10FC70000846114602F06CF9C0F5006040F6F0113C
:10FC8000C2F20001A1F80008012081F80208B1F8D1
:10FC900000080A2809D0FFE740F6F010C2F2000081
:10FCA000B0F8000814282BD1FFE740F6F010C2F29C
:10FCB0000000417A092201901046019A00911146F4
:10FCC00001F0E0FE0099814219D1FFE70A2003907C
:10FCD000FFE70398411E039100280DD0FFE703982A
:10FCE00040F6F011C2F20001085C039941F2F412EF
:10FCF000C2F200025054ECE7FEF730FDFFE7FFE7E9
:10FD00000020C4F20200052101F0FCFEFFE704B070
:10FD100080BD000080B582B041F64030C2F20000E4
:10FD200046F20041C4F2000100220190084611464B
:10FD3000019A01F09FFD0198016840F2031291427F
:10FD400044D1FFE741F21520C2F20000002101700A
:10FD5000FFE741F21520C2F200000078072819DC05
:10FD6000FFE741F21520C2F20000007841F6403171
:10FD7000C2F200010144C97A41F20872C2F20002E3
:10FD80001154FFE741F21520C2F200000178013161
:10FD90000170DEE741F20870C2F2000000787528B9
:10FDA00013D1FFE741F20870C2F2000040787028DA
:10FDB0000BD1FFE741F20870C2F20000807864289E
:10FDC00003D1FFE705F08AFAFFE700E0FFE702B0A2
:10FDD00080BD000080B582B041F2EC60C2F200004C
:10FDE00001894CF2EC224FF47A73019008461146D7
:10FDF0001A4607F039FF41F21821C2F200010860EB
:10FE000001988088009105F0A1FA40F6B001C2F295
:10FE100000010860009801684EF66122914217DBEC
:10FE2000FFE740F2D700C2F20000017801F03F0185
:10FE3000017040F2D800C2F20000017801F03F01E9
:10FE4000017040F2DD00C2F20000032101706CE09D
:10FE500041F21820C2F2000000684DF6A961884204
:10FE600017DBFFE740F2D700C2F20000017841F053
:10FE70004001017040F2D800C2F20000017841F068
:10FE80004001017040F2DD00C2F200000221017069
:10FE90004AE041F21820C2F2000000684DF6A86165
:10FEA000884229DCFFE741F21820C2F20000006816
:10FEB0004DF2E54188421FDBFFE740F2D700C2F276
:10FEC0000000017801F03F010170017841F040012C
:10FED000017040F2D800C2F20000017801F03F0149
:10FEE0000170017841F04001017040F2DD00C2F282
:10FEF00000000121017016E040F2D700C2F20000BC
:10FF0000017801F03F01017040F2D800C2F2000018
:10FF1000017801F03F01017040F2DD00C2F2000003
:10FF200000210170FFE7FFE7FFE740F6B000C2F2F3
:10FF30000000006846F2A911884217DBFFE740F293
:10FF4000D700C2F20000017801F0CF01017040F249
:10FF5000D800C2F20000017801F0CF01017040F238
:10FF6000D900C2F20000032101706CE040F6B0003D
:10FF7000C2F20000006844F62161884217DBFFE707
:10FF800040F2D700C2F20000017841F01001017088
:10FF900040F2D800C2F20000017841F01001017077
:10FFA00040F2D900C2F20000022101704AE040F69E
:10FFB000B000C2F20000006844F62061884229DCEB
:10FFC000FFE740F6B000C2F20000006844F2516161
:10FFD00088421FDBFFE740F2D700C2F20000017841
:10FFE00001F0CF010170017841F01001017040F281
:10FFF000D800C2F20000017801F0CF010170017851
:020000040801F1
:1000000041F01001017040F2D900C2F2000001215C
:10001000017016E040F2D700C2F20000017801F052
:10002000CF01017040F2D800C2F20000017801F067
:10003000CF01017040F2D900C2F20000002101702E
:10004000FFE7FFE7FFE702B080BD000083B00A468C
:100050000346ADF80A008DF80910BDF80A000190BA
:100060009DF8090000F580700090FFE701984000BE
:1000700001900098400000909DF80100C007002802
:1000800004D0FFE7019801300190FFE79DF80600DA
:10009000C007002806D0FFE7019841F2210148403F
:1000A0000190FFE7FFE79DF80200C0070028DDD0C0
:1000B000FFE7BDF8040003B070470000FFE7FEE76C
:1000C00083B013468C460190ADF80210ADF80020C5
:1000D0000198BDF90010884205DDFFE7BDF800007A
:1000E000ADF80A000EE00198BDF90210884205DA69
:1000F000FFE7BDF80200ADF80A0003E00198ADF893
:100100000A00FFE7BDF90A0003B0704782B041F270
:100110002820C2F20000019001980321016101989A
:100120004161019848F6F441C0F6010181610198EE
:1001300041F2E022C2F20002C26101984FF48062F3
:100140000262019800228262019842620198C262B2
:1001500001980166019841F2D021C2F20001416686
:10016000019810218166019802670198C266019882
:100170004267BFF35F8F0092FFE700980F280ED809
:10018000FFE7009847F6E651C0F60101091AC97B5E
:10019000019A1154FFE7009801300090EDE7BFF39A
:1001A0005F8F02B07047000084B00390039800692D
:1001B00002900398C068019002980199884209D87A
:1001C000FFE7039880680199401A029908440138B2
:1001D000009005E002980199C94308440090FFE7A8
:1001E000009804B07047000010B58CB0DDF83CC03A
:1001F000DDF838E00B900A91099208930A98B0F163
:10020000FF3F04DCFFE70A984042059002E00A98AD
:100210000590FFE70598069001200790FFE70698F4
:100220000999884209DBFFE70698099990FBF1F0EC
:100230000690079801300790F1E7089807998842DF
:1002400003D9FFE708980790FFE70E9800280ED023
:10025000FFE70A98002806D4FFE79DF83C00400716
:10026000002804D5FFE70E9801380E90FFE79DF8AF
:100270003C008007002804D5FFE7089800282FD00D
:10028000FFE79DF83C00C007002829D1FFE70E9842
:10029000002824D0FFE7FFE70E98002100280491F2
:1002A00008D0FFE707980E990022884238BF012244
:1002B0000492FFE70498C00700280FD0FFE70E98CC
:1002C00001380E900B98202100F060F90B98C0685F
:1002D000B0F1FF3F01DCFFE700E0DDE7FFE7FFE70C
:1002E0000B98C06800286FD4FFE70A98B0F1FF3F71
:1002F00008DCFFE70A9840420A900B982D2100F095
:1003000045F90CE09DF83C004007002805D5FFE7C3
:100310000B982B2100F03AF900E0FFE7FFE70B987C
:10032000C06800284FD4FFE79DF83C0080070028F4
:1003300033D5FFE79DF83C00C00700282DD1FFE72B
:100340000898002829D1FFE70E98002824D0FFE75D
:10035000FFE70E9800210028039108D0FFE70798D7
:100360000E990022884238BF01220392FFE70398CA
:10037000C00700280FD0FFE70E9801380E900B98A9
:10038000302100F003F90B98C068B0F1FF3F01DCA9
:10039000FFE700E0DDE7FFE7FFE70B98C068002814
:1003A00010D4FFE70B980A99099A089BDDF838C02A
:1003B000DDF83CE06C46C4F804E0C4F800C000F08E
:1003C00005F8FFE7FFE7FFE70CB010BD80B58CB084
:1003D000DDF83CC0DDF838E00B900A9109920893F3
:1003E0000A980590012006900490FFE70598099966
:1003F000884209D3FFE705980999B0FBF1F0059011
:10040000049801300490F1E708980499884203D9D0
:10041000FFE708980490FFE79DF83C00C00700281C
:100420003CD1FFE70E98002837D0FFE79DF83C004D
:100430008007002808D5FFE70898002804D1FFE7C7
:1004400030208DF80F0003E020208DF80F00FFE72B
:10045000FFE70E9800210028029108D0FFE70498DA
:100460000E990022884238BF01220292FFE70298CB
:10047000C007002810D0FFE70E9801380E900B98A7
:100480009DF80F1000F082F80B98C068B0F1FF3FA4
:1004900001DCFFE700E0DCE7FFE7FFE70B98C0685F
:1004A000002870D4FFE7FFE70898022804D3FFE78D
:1004B0000898013808900BE00A980699B0FBF1F013
:1004C000079007980999884201D2FFE705E0FFE706
:1004D0000998069948430690E6E7FFE70A980699C7
:1004E000B0FBF1F00790079806990A9A00FB1120DB
:1004F0000A900B98079947F6F752C0F60102515C33
:1005000000F044F80B98C068B0F1FF3F01DCFFE752
:1005100009E009980699B1FBF0F00690FFE706980C
:100520000028DBD1FFE79DF83C00C007002829D058
:10053000FFE70E98002824D0FFE7FFE70E98002180
:100540000028019108D0FFE704980E990022884204
:1005500038BF01220192FFE70198C00700280FD0A1
:10056000FFE70E9801380E900B98202100F00EF84E
:100570000B98C068B0F1FF3F01DCFFE700E0DDE76A
:10058000FFE7FFE7FFE70CB080BD000080B584B057
:100590000A4603908DF80B1003988068019001982B
:1005A00001300399496888420FD8FFE79DF80B0096
:1005B00003990968019A8854019801300399886069
:1005C0000398C1680131C160FFE703984168806802
:1005D000884215D1FFE70398016882680069FEF739
:1005E0009BFC03998968884205D0FFE703984FF088
:1005F000FF31C16003E0039800218160FFE7FFE75E
:1006000004B080BD80B58AB009900891079200209F
:1006100005900998C0680390FFE709980069049065
:1006200004980399884206D9FFE704980399C943BF
:100630000844069008E0099880680399049A891A8A
:10064000C94308440690FFE7069809998968039A08
:10065000891A884203D2FFE70698019005E00998BD
:1006600080680399401A0190FFE701980690069868
:100670000799884203D2FFE70698009002E00798A6
:100680000090FFE700980690099840680399084495
:10069000029002980899069AFDF766FD0699059A58
:1006A000114405910699089A114408910699079AF0
:1006B000511A07910699039A114403910399099AD3
:1006C0009268914203D1FFE700200390FFE7BFF358
:1006D0005F8F03980999C860FFE7079800289CD1AD
:1006E000FFE705980AB080BD80B588B007900691F5
:1006F00005920798C0680390079880680399401A8C
:10070000029002980599884212D9FFE7079840683D
:1007100003990844019001980699059AFDF724FD74
:10072000BFF35F8F0399059A1144079AD16023E0C4
:100730000298049007984068039908440190019832
:100740000699049AFDF710FD0599029A891A0491F9
:100750000799496801910199069A029B1A44049BE2
:100760000090084611461A46FDF7FEFCBFF35F8F66
:100770000499079AD160FFE708B080BD82B001906C
:100780000091019800680099884204DDFFE7009815
:1007900001990860FFE70198006800994942884282
:1007A00005DAFFE70098404201990860FFE702B0D0
:1007B0007047000081B0009042F23C40C4F201005A
:1007C000006841F67431C2F20001088042F24040F4
:1007D000C4F201000068488041F68C30C2F200008B
:1007E000006809281AD8FFE741F68C30C2F20000F1
:1007F00001680131016041F67430C2F20000B0F9C5
:10080000001041F69432C2F20002136819441160DC
:10081000B0F902005168084450602AE041F68C307B
:10082000C2F2000000680A2822D1FFE741F69430A6
:10083000C2F20000016846F26762C6F2666251FBCE
:1008400002F18B1003EBD17141F67C33C2F200034D
:100850001960406850FB02F0811001EBD0705860C5
:1008600041F68C30C2F20000016801310160FFE7FF
:10087000FFE741F67430C2F20000018841F67C3295
:10088000C2F200021368C91A01EB81018900009BC2
:10089000198041F66C33C2F2000319804088516818
:1008A000401A00EB8000800000994880588001B019
:1008B0007047000081B000900098816841F0080105
:1008C0008160FFE7009880680007002801D5FFE7F6
:1008D000F8E70098816841F004018160FFE7009823
:1008E00080684007002801D5FFE7F8E701B07047AE
:1008F00084B00B4603908DF80B1001929DF80B000D
:1009000001460128009104D0FFE70098022812D088
:1009100023E00398C16A21F47001C16201980021AB
:10092000CFF6F07101EB00503FFA80F00399CA6AEC
:100930001043C86212E00398816B21F44011816377
:1009400001980021CFF6F07101EB005000F4401047
:1009500003998A6B1043886300E0FFE704B0704797
:1009600080B586B042F20040C4F2010001210522A8
:10097000FFF7BEFF0220059000200490FFE70498D7
:10098000042814D8FFE7049848F61811C0F60101AE
:1009900011F82020C1B242F20040C4F2010002234B
:1009A00000F050FBFFE7049801300490E7E742F2C3
:1009B0000040C4F20100012103900291029A00F06C
:1009C00055F84FF460220398029900F091F8002046
:1009D000039901900846019900F018F84FF48071CE
:1009E0000398029A00F032FC00F088FC0398019909
:1009F00000F0F8FB039800F029F8039800F01CF8C9
:100A00000398029900F002FC06B080BD82B001900C
:100A100000910098002806D0FFE70198816841F412
:100A20000061816005E00198816821F400618160C6
:100A3000FFE702B07047000081B000900098816825
:100A400041F48071816001B07047000081B0009076
:100A500000988068C007002806D1FFE700988168E9
:100A600041F001018160FFE701B0704782B0134699
:100A70008C4601908DF803108DF802209DF802003D
:100A8000002819D0FFE79DF80300C007002806D012
:100A9000FFE70198816841F480118160FFE79DF8CC
:100AA00003008007002806D5FFE70198816841F41C
:100AB00000418160FFE718E09DF80300C0070028AF
:100AC00006D0FFE70198816821F480118160FFE77B
:100AD0009DF803008007002806D5FFE7019881688C
:100AE00021F400418160FFE7FFE702B0704700009A
:100AF00084B00B4603908DF80B1001929DF80B000B
:100B000001460128009104D0FFE7009802280BD08D
:100B100015E00398816821F46021816001980399B0
:100B20008A68104388600BE00398816821F4E041F3
:100B30008160019803998A681043886000E0FFE7AC
:100B400004B0704781B0009042F63C00C4F201004E
:100B5000006841F67431C2F20001888042F640001C
:100B6000C4F201000068C88041F69030C2F2000073
:100B7000006800281AD1FFE741F69030C2F2000069
:100B800001680131016041F67430C2F20000B0F931
:100B9000041041F69C32C2F200021368194411603D
:100BA000B0F906005168084450601CE041F69030EE
:100BB000C2F200000068012814D1FFE741F69C3022
:100BC000C2F20000016841F68432C2F200021160F4
:100BD0004068506041F69030C2F200000168013177
:100BE0000160FFE7FFE741F67430C2F20000818840
:100BF00041F68432C2F200021368C91A01EB810186
:100C00008900009B998041F66C33C2F20003998001
:100C1000C0885168401A00EB800080000099C880AD
:100C2000D88001B07047000080B584B0022005F084
:100C30000DF840F2096005F061F940F20A6005F034
:100C40005DF940F20F6005F059F900F021F842F229
:100C50000040C4F2010004210390029100F092F9D7
:100C60000398029900F064F942F60000C4F2010012
:100C70000190029900F086F90198029900F058F964
:100C8000122000210091009A04F03AFE04B080BDC9
:100C900080B58CB040F2026005F030F940F203609C
:100CA00005F02CF940F2046005F028F94FF4C0601B
:100CB00005F024F940F2096005F020F940F20A60DD
:100CC00005F01CF940F20F6005F018F9022004F05D
:100CD000BDFF00200B90FFE70B980A2813D8FFE711
:100CE0000B9840F25001C2F2000101EBC00251F832
:100CF000300053680021042204F0BEF9FFE70B988E
:100D000001300B90E8E742F20040C4F201000221FA
:100D100008900791079AFFF7EBFD42F60000C4F236
:100D2000010006900799079AFFF7E2FD01200A905B
:100D300048F29801C0F601010A780023DDF820C0CE
:100D40000590604604911946DDF814E0039373465C
:100D500000F072F80498027908980599059B00F054
:100D60006BF80498027A06980399059B00F064F8E2
:100D70000498027B06980599059B00F05DF8089899
:100D80000799059AFFF772FE06980799059AFFF7EB
:100D90006DFE4FF4005208980799FFF7A9FE4FF433
:100DA000805206980799FFF7A3FE08980399FFF76A
:100DB0002DFE06980399FFF729FE4FF480700899DD
:100DC000029008460299059A00F040FA06980299A6
:100DD000059A00F03BFA00F091FA0898039900F0A8
:100DE00001FA0698039900F0FDF90898FFF72EFE26
:100DF0000698FFF72BFE03980990FFE7099841F248
:100E00006F71884205DCFFE7FFE709980130099020
:100E1000F4E742F20040C4F201000190FFF74AFDFE
:100E200042F60000C4F20100FFF744FD02210198E0
:100E300000F0ECF90CB080BD80B586B094468E46CB
:100E400005908DF813108DF8122003930598806B90
:100E5000C0F301508DF80B000598806B01909DF850
:100E60000B009DF81310401A00EB8000C0F10F003A
:100E70001F2101FA00F0019921EA000001909DF87C
:100E800012009DF80B109DF81320891A01EB8101C7
:100E9000C1F10F018840019908430190019805991B
:100EA00088639DF8120009281BD8FFE705980069A0
:100EB00000909DF8120000EB4000072101FA00F0BD
:100EC000009921EA0000009003989DF8121001EBB0
:100ED00041018840009908430090009805990861F5
:100EE00023E09DF8120011281DD8FFE70598C0687F
:100EF00000909DF8120000EB40001E38072101FA17
:100F000000F0009921EA0000009003989DF812106B
:100F100001EB41011E398840009908430090009878
:100F20000599C86000E0FFE7FFE706B080BD00005C
:100F300082B0019000919DF80000C007002806D003
:100F4000FFE70198416841F040014160FFE79DF8EB
:100F500000008007002806D5FFE70198416841F0AE
:100F600020014160FFE79DF800004007002806D5FA
:100F7000FFE70198416841F080014160FFE702B05E
:100F80007047000082B001900091009801990A68B2
:100F900022EA0000086002B07047000085B00490AB
:100FA000039100208DF80B0003980128009008D0D1
:100FB000FFE70098022818D0FFE70098042828D0FF
:100FC0003BE00498006800F001000190049840683C
:100FD0004006002808D5FFE70198002804D0FFE765
:100FE00001208DF80B00FFE728E00498006800F06E
:100FF00002000190049840688006002808D5FFE7A9
:101000000198002804D0FFE701208DF80B00FFE7CE
:1010100014E00498006800F004000190049840680F
:101020000006002808D5FFE70198002804D0FFE754
:1010300001208DF80B00FFE700E0FFE79DF80B00B3
:1010400005B0704780B585B094468E4604908DF803
:101050000F108DF80E2002939DF80F0005281CD864
:10106000FFE70498406B01909DF80F0000EB8000B3
:101070001F2101FA00F0019921EA000001909DF87A
:101080000E009DF80F1001EB810188400199084383
:10109000019001980499486348E09DF80F000B28DF
:1010A0001ED8FFE70498006B01909DF80F0000EB3D
:1010B00080001E381F2101FA00F0019921EA00008A
:1010C00001909DF80E009DF80F1001EB81011E3973
:1010D000884001990843019001980499086324E02D
:1010E0009DF80F000F281ED8FFE70498C06A0190F2
:1010F0009DF80F0000EB80003C381F2101FA00F042
:10110000019921EA000001909DF80E009DF80F1052
:1011100001EB81013C398840019908430190019815
:101120000499C86200E0FFE7FFE7FFE79DF80E00C3
:1011300009281BD8FFE70498006900909DF80E006D
:1011400000EB4000072101FA00F0009921EA0000BD
:10115000009002989DF80E1001EB41018840009923
:101160000843009000980499086123E09DF80E0060
:1011700011281DD8FFE70498C06800909DF80E0064
:1011800000EB40001E38072101FA00F0009921EA27
:101190000000009002989DF80E1001EB41011E39ED
:1011A000884000990843009000980499C86000E0C6
:1011B000FFE7FFE705B080BD80B5022004F046FDE3
:1011C0004FF4A06004F09AFE40F2096004F096FE2D
:1011D00040F20A6004F092FE00F00CFDFFF7C0FB45
:1011E00080BD000082B0019000910198D0F880107D
:1011F00021F44051C0F8801000980199D1F8802066
:101200001043C1F8800002B07047000082B00A4667
:1012100001908DF803109DF80300C007002806D048
:10122000FFE70198816841F480018160FFE79DF844
:1012300003008007002806D5FFE70198816841F484
:1012400000118160FFE702B07047000083B01346D1
:10125000029001918DF803209DF80300002825D00D
:10126000FFE79DF80500C007002806D0FFE70298B9
:10127000416841F480714160FFE79DF80500400737
:10128000002806D5FFE70298416841F4806141607B
:10129000FFE79DF804008007002806D5FFE70298C5
:1012A000816841F002018160FFE724E09DF80500BC
:1012B000C007002806D0FFE70298416821F480713A
:1012C0004160FFE79DF805004007002806D5FFE7CD
:1012D0000298416821F480614160FFE79DF80400B5
:1012E0008007002806D5FFE70298816821F00201F7
:1012F0008160FFE7FFE703B07047000042F208405B
:10130000C4F20100016841F400010160704700006F
:1013100080B596B04FF000604FF4604104F098FB48
:1013200062B64DF63000C0F6000000884AF655213E
:10133000884201D1FFE74BE00020ADF81600FFE73F
:10134000BDF816000F2814DCFFE7BDF816004DF6B7
:101350000001C0F6000151F82000BDF8161006AAE1
:1013600042F82100FFE7BDF816000130ADF8160085
:10137000E6E700200490039044F63121029143F205
:101380004D11C3F23501019140F203110A9140F26F
:1013900003410C910D9001980E9002980F900398C4
:1013A0001090049811904AF6552012904DF60000C6
:1013B000C0F6000006A91022FDF7C2F8002807D1E8
:1013C000FFE741F65830C2F2000001210170FFE74B
:1013D00016B080BD86B00B460590ADF81210039292
:1013E000BDF8120005990988884217DCFFE7BDF8AF
:1013F00012000399084405990988401A41F20071C6
:10140000C2F200010860BDF8120005990988401A6F
:1014100041F20471C2F20001086016E0BDF812004A
:1014200005990988401A41F20071C2F20001086072
:10143000BDF812000399401A05990988401A41F233
:101440000471C2F200010860FFE741F20070C2F2CD
:1014500000000068012807DBFFE741F20070C2F2DC
:1014600000000068029007E041F20070C2F2000044
:10147000006840420290FFE7029841F20471C2F214
:10148000000109680129019007DBFFE741F20470C0
:10149000C2F200000068009007E041F20470C2F25E
:1014A0000000006840420090FFE7009801998142E7
:1014B0000BDAFFE741F20070C2F20000006841F26F
:1014C000FC61C2F2000108600AE041F20470C2F25D
:1014D0000000006841F2FC61C2F200010860FFE711
:1014E00041F2FC60C2F20000006806B070470000E4
:1014F00080B582B00190019846F20041C4F200012B
:10150000884209D1FFE740F21940009004F026FD1F
:10151000009804F00BFDFFE702B080BD82B001909F
:101520000020009001984089012101FA00F000900C
:1015300046F20060C4F20000016841F00101016060
:10154000009846F21C61C4F200010A6822EA000019
:1015500008600198C089002822D1FFE7009846F270
:101560000C61C4F200010A6822EA000008600198D8
:10157000C188428842EA0141408946F24062C4F291
:10158000000242F8301001988188028842EA014145
:10159000408946F24462C4F2000242F83010FFE78C
:1015A0000198C089012821D1FFE7009846F20C611B
:1015B000C4F200010A68104308600198018842885B
:1015C00042EA0141408946F24062C4F2000242F818
:1015D000301001988188C28842EA0141408946F270
:1015E0004462C4F2000242F83010FFE7019880899B
:1015F00000280AD1FFE7009846F20461C4F2000116
:101600000A6822EA0000086008E0009846F20461D7
:10161000C4F200010A6810430860FFE701980089DE
:1016200000280AD1FFE7009846F21461C4F20001D5
:101630000A6822EA0000086008E0009846F2146197
:10164000C4F200010A6810430860FFE70198007CBB
:10165000012809D1FFE7009846F21C61C4F200019D
:101660000A6810430860FFE746F20060C4F2000019
:10167000016821F00101016002B0704780B586B0B9
:10168000059004914FF6FF70039000208DF80B0039
:101690000598016821F0020101600598016841F098
:1016A00001010160FFE7059840680021C00700289C
:1016B000019106D1FFE70398002818BF012001908F
:1016C000FFE70198C007002804D0FFE7039801381E
:1016D0000390E8E705984068C007002804D1FFE7B9
:1016E00000208DF80B00ABE00498017842788378F5
:1016F00090F803C04FF0407E0EEA026242EA817128
:1017000003F00F0241EA02410CF0070241EA0251E4
:10171000408901386FF39F2008440599C8610498F7
:101720000079012806D1FFE70598016841F08001A2
:10173000016005E00598016821F080010160FFE784
:1017400004984079012806D1FFE70598016841F027
:101750004001016005E00598016821F04001016049
:10176000FFE704988079012806D1FFE70598016812
:1017700041F02001016005E00598016821F0200199
:101780000160FFE70498C079012806D1FFE70598BA
:10179000016841F01001016005E00598016821F041
:1017A00010010160FFE70498007A012806D1FFE7E5
:1017B0000598016841F00801016005E0059801689D
:1017C00021F008010160FFE70498407A012806D162
:1017D000FFE70598016841F00401016005E0059804
:1017E000016821F004010160FFE70598016821F01C
:1017F000010101604FF6FF700390FFE70598406814
:101800000021C0070028009106D0FFE703980028B8
:1018100018BF01200090FFE70098C007002804D0FF
:10182000FFE7039801380390E8E705984068C00790
:10183000002804D0FFE701208DF80B00FFE7FFE749
:101840009DF80B0006B080BD82B001900091009819
:1018500001994A6922EA0000486102B0704700001D
:1018600082B001900091009801994A691043486143
:1018700002B0704783B00B4602908DF807100092BB
:1018800002989DF8071000EB0110D0F8B00100F0AD
:101890000400009908720098007A00280BD1FFE735
:1018A00002989DF8071000EB0110D0F8B001400D30
:1018B000009908600AE002989DF8071000EB0110FB
:1018C000D0F8B001C00800994860FFE702989DF881
:1018D000071000EB0110D0F8B00100F002000099F1
:1018E000487202989DF8071000EB0110D0F8B4017F
:1018F00000F00F000099887202989DF8071000EB25
:101900000110D0F8B401000A0099C87402989DF83B
:10191000071000EB0110D0F8B8010099C8720298C6
:101920009DF8071000EB0110D0F8B801000A0099EB
:10193000087302989DF8071000EB0110D0F8B80169
:10194000000C0099487302989DF8071000EB0110F5
:10195000D0F8B801000E0099887302989DF807101E
:1019600000EB0110D0F8BC010099C87302989DF8F3
:10197000071000EB0110D0F8BC01000A00990874B0
:1019800002989DF8071000EB0110D0F8BC01000C84
:101990000099487402989DF8071000EB0110D0F8E8
:1019A000BC01000E009988749DF80700002806D13C
:1019B000FFE70298C16841F02001C16005E002988C
:1019C000016941F020010161FFE703B070470000A9
:1019D00080B587B08C468646ADF81A00ADF8181071
:1019E0000592049344F6E610ADF80E0046F6D96170
:1019F000ADF80C10BDF81A10059A1180BDF91A1037
:101A0000414302910299CA1701EB5241C913029155
:101A1000BDF91810484301900198C11700EB5140DF
:101A2000C01301900298019908440844009000985E
:101A3000B0F5004F04DBFFE747F6FF7000900BE0C6
:101A4000009810F5004F06DCFFE748F20100CFF6E2
:101A5000FF700090FFE7FFE700980499088007B047
:101A600080BD000081B00146ADF80200BDF8020063
:101A7000C0F3072047F60862C0F6010232F91000F1
:101A800001B0704780B584B002468DF80F00029116
:101A900002989DF80F100192FCF7F0FC41F21171D1
:101AA000C2F200010870087804B080BD81B00090D7
:101AB000009841F21471C2F200010860FFE741F2A0
:101AC0001470C2F200000068002801D0FFE7F6E7BA
:101AD00001B0704741F21470C2F2000000680028A3
:101AE00008D0FFE741F21470C2F20000016801392A
:101AF0000160FFE741F65430C2F200000168013195
:101B00000160704780B584B00A4603908DF80B10D1
:101B100003989DF80B10019200F0DEF9002802D125
:101B2000FFE7FFE7FEE703989DF80B1001EB81014B
:101B300000EB8100816821F00101816004B080BD6B
:101B400080B584B00A4603908DF80B1003989DF879
:101B50000B10019200F0C0F9002802D1FFE7FFE767
:101B6000FEE703989DF80B1001EB810100EB81006B
:101B7000816841F00101816004B080BD80B584B00E
:101B80000A4603908DF80B1003989DF80B100192F4
:101B900000F0A2F9002802D1FFE7FFE7FEE7039873
:101BA0009DF80B1001EB810100EB8100816821F0B1
:101BB0002001816004B080BD80B584B00A460390E6
:101BC0008DF80B1003989DF80B10019200F084F92A
:101BD000002802D1FFE7FFE7FEE703989DF80B100E
:101BE00001EB810100EB8100816841F020018160FF
:101BF00004B080BD70B58EB04FF4A06004F07EF9E3
:101C00000020C4F2020000210690059100F040F887
:101C100005988DF8360041F2EC61C2F2000109919D
:101C200001218DF835104FF480610A9105210B9147
:101C300042F24C41C4F2010107918DF834004FF497
:101C4000807108914FF440510C91079A089B0999B3
:101C5000DDF828C0DDF82CE00C9C0D9D6E4635614A
:101C6000F460C6F808E0C6F804C03160069805992B
:101C700000F058F806980599FFF79EFF0698059919
:101C800000F00CF906980599FFF75AFF0EB070BDE9
:101C900080B584B00A4603908DF80B1003989DF828
:101CA0000B10019200F018F9002802D1FFE7FFE7BE
:101CB000FEE703989DF80B1001EB810100EB81001A
:101CC000816821F00101816003989DF80B1001EB00
:101CD000810100EB81000021816003989DF80B20B9
:101CE00002EB820200EB8200C16003989DF80B209A
:101CF00002EB820200EB8200016103989DF80B2049
:101D000002EB820200EB820041619DF80B00800033
:101D10000F2101FA00F003994A681043486004B0AB
:101D200080BD00002DE9F0438DB0DDF860C0DDF826
:101D30005CE0169C159D149E1F4690468946CDF882
:101D400030C0CDF82CE00A940995089607930692C6
:101D500005908DF8131005989DF813100297CDF893
:101D60000480CDF8009000F0B7F8002802D1FFE71A
:101D7000FFE7FEE7069805999DF8132002EB820223
:101D800001EB82010861089805999DF8132002EB88
:101D9000820201EB82014861BDF8280005999DF897
:101DA000132002EB820201EB8201C86005989DF8C6
:101DB000131001EB810100EB810080680390039810
:101DC00020F47C500390079809990B9A084310431C
:101DD000039908430390039805999DF8132002EB9B
:101DE000820201EB820188609DF8300001280CD14D
:101DF000FFE705989DF8131001EB810100EB8100CE
:101E0000816841F0400181600BE005989DF8131056
:101E100001EB810100EB8100816821F040018160CC
:101E2000FFE79DF8310001280CD1FFE705989DF8E8
:101E3000131001EB810100EB8100816841F080010A
:101E400081600BE005989DF8131001EB810100EB18
:101E50008100816821F080018160FFE79DF83200F8
:101E600000280CD1FFE705989DF8131001EB8101C4
:101E700000EB8100816821F0100181600BE0059882
:101E80009DF8131001EB810100EB8100816841F0A6
:101E900010018160FFE70DB0BDE8F08380B584B02C
:101EA0000A4603908DF80B1003989DF80B100192D1
:101EB00000F012F8002802D1FFE7FFE7FEE70398E1
:101EC0009DF80B1001EB810100EB8100816821F48A
:101ED0008041816004B080BD82B00A4601908DF8D7
:101EE000031001208DF80200019840F20041C4F275
:101EF000020188420AD1FFE79DF80300052804DBB0
:101F0000FFE700208DF80200FFE7FFE79DF80200E1
:101F100002B0704780B584B00B4603908DF80B106B
:101F2000019203989DF80B100093FFF7D5FF00284E
:101F300002D1FFE7FFE7FEE7BDF8040003999DF833
:101F40000B2002EB820201EB8201C86004B080BD6D
:101F500080B584B00A4603908DF80B1003989DF865
:101F60000B100192FFF7B8FF002802D1FFE7FFE74F
:101F7000FEE703989DF80B1001EB810100EB810057
:101F8000C06804B080BD000081B000900098406936
:101F900001B0704780B541F21870C2F20000FFF73F
:101FA000F3FF80BD80B541F23070C2F20000FFF750
:101FB000EBFF80BD80B541F21870C2F2000000F066
:101FC00009F880BD80B541F23070C2F2000000F027
:101FD00001F880BD80B582B00190019800680028AA
:101FE00005D0FFE70198016809688180FFE7019843
:101FF000811D80884FF40062009008460099FFF729
:10200000E9F90199886001988188C1800198816807
:102010004269114441610198818800EE101AB8EEBE
:10202000C00A9FED091A20EE010ABDEEC00A10EEAB
:10203000101AC1810198C18901EB810189000182D7
:102040000198008A02B080BD0000004281B000907B
:102050000098C08901B0704780B541F21870C2F293
:102060000000FFF7F3FF80B280BD000080B541F2B1
:102070003070C2F20000FFF7E9FF80B280BD0000BF
:1020800082B00190009100980199086002B07047F9
:1020900082B00A460190ADF80210BDF80200019925
:1020A0000968086002B0704780B582B041F21870CC
:1020B000C2F200000021FFF7EBFFBDF8060002B0FE
:1020C00080BD000080B582B041F23070C2F20000E5
:1020D0000021FFF7DDFFBDF8060002B080BD000063
:1020E00082B041F24870C2F2000001680131016023
:1020F00040F21400C2F20000006840F21801C2F27F
:1021000000010968884207DBFFE740F21400C2F2D1
:1021100000000068019006E040F21800C2F20000E2
:1021200000680190FFE7019840F67411C2F20001C7
:102130000860086840F23001C2F200010968884274
:1021400007DBFFE740F67410C2F200000068009061
:1021500006E040F23000C2F2000000680090FFE7A5
:10216000009840F67411C2F2000108600868232844
:1021700007DCFFE740F23400C2F2000000210160FA
:1021800030E040F67410C2F200000068242818DB2A
:10219000FFE740F67410C2F2000000684A2810DC25
:1021A000FFE740F67410C2F2000000682338C11740
:1021B00000EB9170801040F23401C2F2000108601F
:1021C0000FE040F67410C2F2000000684B2807DBF5
:1021D000FFE740F23400C2F2000009210160FFE78E
:1021E000FFE7FFE741F24870C2F2000000684CF6DA
:1021F000CD41CCF6CC41A0FB0112D20802EB820209
:10220000A0EB420040F23402C2F200021268904297
:1022100008D2FFE740F61440C4F201004FF4006119
:10222000016007E040F61040C4F201004FF4006185
:102230000160FFE741F24C70C2F2000000781A28FA
:1022400010D1FFE741F28C70C2F2000000781A282A
:1022500008D1FFE740F61040C4F201004FF40061DE
:102260000160FFE702B0704783B0029001910092D5
:1022700001980299009A1144884205D9FFE7019814
:102280000099401A02900FE001980299009A891A69
:10229000884205D2FFE7019800990844029002E0C5
:1022A00001980290FFE7FFE7029803B07047000033
:1022B00041F24C70C2F20000FE21017041F28C70BC
:1022C000C2F20000017041F26C70C2F200000170B5
:1022D00041F2AC72C2F20002117040F21001C2F27F
:1022E00000010B8843600B88836008885060088871
:1022F0009060704780B594B040F6D410C2F20000F0
:102300000068B0F57A7F08DAFFE740F6D410C2F231
:10231000000001680131016006E040F6D410C2F20D
:10232000000000210160FFE741F26C70C2F2000082
:10233000406841F24C71C2F20001486008780146E1
:102340000028139154D0FFE7139801285BD0FFE7D2
:102350001398022800F0A780FFE71398032800F0E5
:10236000E880FFE71398042800F06D81FFE71398D9
:102370000F2800F0CE81FFE713981A2800F0CA81D9
:10238000FFE713981F2800F0D081FFE71398552826
:1023900000F00B82FFE71398AA2800F03282FFE7D3
:1023A0001398CB2800F07482FFE71398DD2800F023
:1023B000E581FFE71398EE2800F09E82FFE713986F
:1023C000F02800F0FE82FFE71398F12800F0018367
:1023D000FFE71398F22800F00483FFE71398F3282F
:1023E00000F00783FFE71398FE2800F00A8330E32C
:1023F00041F24C70C2F20000406840F24801C2F263
:102400000001086026E340F23F00C2F200002E21E6
:10241000017041F2D070C2F20000006D10F1150F92
:102420001ADCFFE741F24C70C2F20000406840F253
:102430004801C2F200010860086840F6E812C2F2E2
:10244000000212684FF46173129111461A46FFF7A9
:102450000BFF1299086025E041F24C70C2F20000B7
:10246000406840F23F01C2F200010978484340F25F
:102470003E01C2F200010978B0FBF1F040F24801E0
:10248000C2F200010860086840F6E812C2F20002D9
:1024900012683C23119111461A46FFF7E5FE119987
:1024A0000860FFE7D6E240F23F00C2F2000041219F
:1024B000017041F2D070C2F20000006D15280BDBF4
:1024C000FFE741F24C70C2F20000406840F2480160
:1024D000C2F20001086017E041F24C70C2F2000045
:1024E000406840F23F01C2F200010978484340F2DF
:1024F0003E01C2F200010978B0FBF1F040F2480160
:10250000C2F200010860FFE740F24800C2F200009A
:10251000016840F6E812C2F2000212684FF46173DB
:102520001090084611461A46FFF79EFE1099086063
:1025300090E240F20800C2F200004FF4A561018071
:102540000088C72807DCFFE740F20800C2F200005D
:10255000C821018011E040F20800C2F200000088AA
:10256000B0F5C86F08DDFFE740F20800C2F20000D6
:102570004FF4C8610180FFE7FFE741F2D070C2F27B
:102580000000006D40F20801C2F2000109884942D2
:1025900088423DDAFFE740F21000C2F200000088F6
:1025A00041F2D071C2F20001096D01290F9007DBE1
:1025B000FFE741F2D070C2F20000006D0E9007E01C
:1025C00041F2D070C2F20000006D40420E90FFE771
:1025D0000E9840F20801C2F200010988401A00EB8F
:1025E00080000F9901EB400040F24802C2F2000265
:1025F0001060106840F6E813C2F20003196840F258
:10260000DC530D921A46FFF72FFE0D99086019E072
:1026100040F20600C2F20000008840F24801C2F217
:1026200000010860086840F6E812C2F20002126871
:102630004FF480730C9111461A46FFF715FE0C9962
:102640000860FFE706E241F2D070C2F20000D0F865
:102650007801012808DBFFE741F2D070C2F20000E8
:10266000D0F878010B9008E041F2D070C2F200007F
:10267000D0F8780140420B90FFE70B9840F23C0104
:10268000C2F200010988401A40F20A01C2F20001B8
:102690000988401A41F22021C2F20001086008684E
:1026A000012818DBFFE740F21000C2F200000088AA
:1026B00041F22021C2F20001096841F24C72C2F2DB
:1026C00000025268514300EB513040F24801C2F21F
:1026D000000108600AE040F21000C2F20000008829
:1026E00040F24801C2F200010860FFE740F24800F2
:1026F000C2F20000006843F6E151884208D3FFE7C8
:1027000040F24800C2F2000043F6E0510160FFE7EA
:10271000A0E19FE140F21000C2F20000008840F208
:102720004801C2F20001086094E140F6C810C2F20C
:10273000000090F9000000281FD1FFE740F6C81004
:10274000C2F200000121017041F2D070C2F200001B
:10275000D0F88410D0F87821891AC0F8841040F29B
:102760004800C2F2000046F2A811016040F2C80021
:10277000C2F2000000210160FFE76BE141F2D0707E
:10278000C2F200000F2180F8431000210182C181B4
:1027900040F2C800C2F20000016040F61400C4F22A
:1027A00001004FF40061016054E141F2D070C2F2C7
:1027B00000000F2180F8431000210182C18140F206
:1027C000D000C2F2000090F90000002818D1FFE705
:1027D00040F2D000C2F200000121017041F24C70C1
:1027E000C2F200005521017041F26C70C2F200008B
:1027F000017040F2C800C2F2000000210160FFE752
:1028000028E141F24C70C2F20000FE21017041F259
:102810006C70C2F20000017040F21001C2F20001BF
:102820000A8842600988816041F2D070C2F20000DB
:102830000021C0F88410C0F8801041F21872C2F272
:102840000002516140F6CC12C2F20002116040F267
:10285000C802C2F20002116040F61002C4F2010286
:102860004FF40063136040F6C812C2F20002117008
:1028700040F2D002C2F20002117048F26801C0F6C4
:1028800001010A9002F0D0FA0A9801F04FFFE1E04E
:1028900041F2D070C2F20000D0F8801040F23C0249
:1028A000C2F2000212881144C0F884100021C0F85E
:1028B000801041F21872C2F200025161122280F8B7
:1028C000432041F2F660C2F20000027841F24C73FC
:1028D000C2F200031A70007841F26C72C2F2000278
:1028E000107040F6CC10C2F20000016040F2C80047
:1028F000C2F200000160ADE041F2D070C2F200000F
:10290000112180F8431040F20E01C2F20001098843
:10291000C165B0F90C00B0F5166F0ADCFFE741F2B3
:10292000D070C2F20000B0F90C0010F5166F40DA5A
:10293000FFE740F2C800C2F2000001680131016007
:102940000068332834D3FFE740F21000C2F20000E1
:10295000008841F24C71C2F20001486041F2D0702F
:10296000C2F20000D0F8802040F23C03C2F2000323
:102970001B881A44C0F884200022C0F8802041F24D
:102980001873C2F200035A61122380F843300A70B0
:1029900041F26C70C2F20000027040F6CC10C2F23C
:1029A0000000026040F2C800C2F200000260FFE7CF
:1029B00006E040F2C800C2F2000000210160FFE71B
:1029C00048E041F2D070C2F20000022180F84310CA
:1029D00040E041F2D070C2F20000102180F84310B4
:1029E00038E041F2D070C2F20000112180F84310AB
:1029F00030E041F2D070C2F20000122180F84310A2
:102A000028E041F2D070C2F200000021C1810182B1
:102A1000C165C0F8841040F2C800C2F2000001682D
:102A2000013101600068652812D3FFE741F24C7064
:102A3000C2F20000EE21017041F26C70C2F200009F
:102A4000017040F2C800C2F2000000210160FFE7FF
:102A500000E0FFE741F2D070C2F2000090F84300BE
:102A6000122840F08D82FFE740F6C810C2F2000045
:102A700090F90000012800F07482FFE740F248005E
:102A8000C2F20000006840F21001C2F200010988A1
:102A900088420BD2FFE740F21000C2F2000000882B
:102AA00040F24801C2F200010860FFE740F228004E
:102AB000C2F20000008841F2D071C2F20001C1F8F8
:102AC0006801D1F8800040F20A01C2F200010988D1
:102AD00040F21202C2F200021288114449428842B6
:102AE0006BDDFFE741F2D070C2F20000D0F8800049
:102AF00040F20A01C2F200010988494288425CDAC8
:102B0000FFE741F24C70C2F200000078032854D075
:102B1000FFE741F24C70C2F20000007804284CD06C
:102B2000FFE740F24800C2F20000006840F21001E6
:102B3000C2F20001098888423ED9FFE740F2100046
:102B4000C2F20000008841F2D071C2F20001D1F857
:102B500080100129099008DBFFE741F2D070C2F232
:102B60000000D0F88000089008E041F2D070C2F276
:102B70000000D0F8800040420890FFE7089840F23B
:102B80000A01C2F200010988401A40F24801C2F26B
:102B900000010A6840F21003C2F200031B88D21A37
:102BA000504340F21202C2F200021288B0FBF2F06F
:102BB000099A10440860FFE7FFE741F2D070C2F2C3
:102BC0000000D0F8800040F20A01C2F2000109883A
:102BD000494288420BDBFFE740F21000C2F20000DE
:102BE000008840F24801C2F200010860FFE740F6A9
:102BF000D410C2F20000016846F26762C6F2666253
:102C000051FB02F34FEA930C0CEBD37303EB8303FA
:102C1000A1EB430140F6B803C2F2000353F82110C0
:102C2000D3F828C0ACEB0101996241F2D071C2F235
:102C30000001D1F850C0006850FB02F24FEA920E3A
:102C40000EEBD27202EB8202A0EB420043F820C0EE
:102C5000086D996A08449862986AB0F5C87F74DD77
:102C6000FFE740F6C210C2F20000FF21017041F2FE
:102C70004C70C2F200000078002808D0FFE741F253
:102C80004C70C2F20000007804281FD1FFE740F228
:102C90004000C2F20000008840F24801C2F2000188
:102CA0000A68504345F26772C2F21912A0FB020291
:102CB00040F2522303EB522240F6E013C2F200032B
:102CC0001A601A680B681A440A60FFE741F2D07074
:102CD000C2F20000D0F8800040F23801C2F20001D8
:102CE00009884942884229DBFFE740F6B800C2F272
:102CF0000000806A40F23A01C2F20001098801EB4B
:102D00008101B0EB410F07DDFFE740F6C010C2F2D2
:102D1000000064210170FFE740F6C010C2F200001D
:102D200090F90000002808D0FFE741F2D070C2F20D
:102D300000006421C0F86811FFE7FFE741F21C20A2
:102D4000C2F2000001210170FFE740F6B800C2F2B4
:102D50000000806AB0F5C87F00F39D80FFE740F671
:102D6000B800C2F20000806A10F5C87FC0F29380FC
:102D7000FFE740F2C000C2F20000016801310160CB
:102D800040F6C210C2F200000021017040F6C010EF
:102D9000C2F2000090F90000002808D0FFE741F2DD
:102DA000D070C2F200006421C0F86811FFE741F260
:102DB0001C20C2F2000090F90000012830D1FFE78A
:102DC00041F24C70C2F200000078002808D0FFE702
:102DD00041F24C70C2F20000007804281FD1FFE7D6
:102DE00040F24000C2F20000008840F24801C2F206
:102DF00000010A68504345F26772C2F21912A0FB43
:102E0000020240F2522303EB522240F6E013C2F2D8
:102E100000031A601A680B681A440A60FFE739E079
:102E200041F21C20C2F2000090F90000002830D1CD
:102E3000FFE741F24C70C2F200000078002808D091
:102E4000FFE741F24C70C2F20000007804281FD165
:102E5000FFE740F24000C2F20000008840F2480163
:102E6000C2F200010A68504345F26772C2F21912B9
:102E7000A0FB020240F2522303EB522240F6E01381
:102E8000C2F200031A601A680B681A440A60FFE76E
:102E9000FFE7FFE70BE040F2C000C2F200000021B4
:102EA000016040F2C400C2F200000160FFE740F69A
:102EB000B800C2F20000806A10F5C87F1EDAFFE792
:102EC00040F6C210C2F200000121017040F6C010AD
:102ED000C2F2000090F90000002808D0FFE740F699
:102EE000C010C2F20000017801390170FFE741F221
:102EF0001C20C2F2000000210170FFE740F2C00078
:102F0000C2F200000068B0F57A7F29D9FFE741F2EC
:102F1000D070C2F20000D0F8800040F20A01C2F284
:102F20000001098849420B225143884218DBFFE720
:102F300041F24C70C2F20000017841F2F662C2F236
:102F400000021180CB21017041F26C70C2F20000CE
:102F5000017040F2C000C2F2000000210160FFE7F2
:102F6000FFE740F24800C2F20000006841F2D07171
:102F7000C2F20001D1F88820801AC1F83001FFE7C1
:102F800041F2D070C2F2000090F84300112809D13C
:102F9000FFE741F2D070C2F2000040F6B831C0F84D
:102FA0003011FFE740F24800C2F20000006841F231
:102FB000707188427DD3FFE740F2D600C2F2000074
:102FC000007801460128079152D0FFE707980228B0
:102FD00032D0FFE7079803285ED1FFE740F21000E8
:102FE000C2F20000018840F24802C2F20002116001
:102FF000116840F6E813C2F200031B684FF0900C12
:1030000006900846194605926246FFF72DF9059984
:1030100008600868069A138898420CD8FFE741F2C6
:103020004C70C2F200005521017041F26C70C2F286
:1030300000000170FFE730E040F24800C2F20000FB
:1030400041F27071016041F26C72C2F20002516093
:10305000016840F6E812C2F20002126848230490A8
:10306000084611461A46FFF7FFF80499086014E075
:1030700040F24800C2F20000016840F6E812C2F2D5
:103080000002126848230390084611461A46FFF7CB
:10309000EBF80399086000E0FFE740F24800C2F255
:1030A0000000006841F2D071C2F20001C1F83001A5
:1030B00036E040F2D600C2F20000007803282ED19C
:1030C000FFE740F21000C2F20000018840F248021F
:1030D000C2F200021160116840F6E813C2F2000368
:1030E0001B684FF0900C0290084619460192624608
:1030F000FFF7BAF8019908600868029A13889842A5
:103100000CD8FFE741F24C70C2F20000552101706B
:1031100041F26C70C2F200000170FFE7FFE7FFE7C9
:1031200040F24800C2F20000006840F6E811C2F226
:103130000001086041F2D070C2F20000D0F88000B7
:1031400040F20A01C2F20001098840F21202C2F202
:10315000000212881144A1EB8101884218DBFFE7CD
:1031600041F24C70C2F20000007841F26C71C2F280
:103170000001097888420BD0FFE741F26C70C2F27F
:103180000000007841F24C71C2F200010870FFE7C4
:1031900041F2D070C2F20000D0F8800040F20A0183
:1031A000C2F20001098840F21202C2F20002128843
:1031B0001144A1EB8101884218DBFFE741F24C701A
:1031C000C2F20000406841F26C71C2F2000149682D
:1031D00088420BD0FFE741F26C70C2F200004068F9
:1031E00041F24C71C2F200014860FFE741F26C709D
:1031F000C2F200000078552818D0FFE741F26C7049
:10320000C2F2000000781F2810D0FFE741F26C7076
:10321000C2F200000078AA2808D0FFE741F26C70E3
:10322000C2F200000078DD280BD1FFE741F26C709C
:10323000C2F20000007841F24C71C2F20001087045
:10324000FFE714B080BD000080B592B040F6D81002
:10325000C2F200000068B0F57A7F08DAFFE740F6B6
:10326000D810C2F2000001680131016006E040F6AA
:10327000D810C2F2000000210160FFE741F2AC70FB
:10328000C2F20000406841F28C71C2F20001486055
:10329000087801460028119154D0FFE711980128C1
:1032A0005BD0FFE71198022800F0A680FFE7119895
:1032B000032800F0E880FFE71198042800F06C81F3
:1032C000FFE711980F2800F0CD81FFE711981A2829
:1032D00000F0C981FFE711981F2800F0CF81FFE7B8
:1032E0001198552800F00A82FFE71198AA2800F0EB
:1032F0003182FFE71198CB2800F07382FFE7119825
:10330000DD2800F0E481FFE71198EE2800F09D82AF
:10331000FFE71198F02800F0FE82FFE71198F128EE
:1033200000F00183FFE71198F22800F00483FFE723
:103330001198F32800F00783FFE71198FE2800F0AA
:103340000A8330E341F28C70C2F20000406840F220
:103350004C01C2F20001086026E340F23F00C2F2D5
:1033600000002E21017041F68810C2F20000006DAD
:1033700015281ADBFFE741F28C70C2F200004068AA
:1033800040F24C01C2F200010860086840F6EC12FD
:10339000C2F2000212684FF46173109111461A468E
:1033A000FEF762FF1099086025E041F28C70C2F2CE
:1033B0000000406840F23F01C2F200010978484332
:1033C00040F23E01C2F200010978B0FBF1F040F298
:1033D0004C01C2F200010860086840F6EC12C2F22B
:1033E000000212683C230F9111461A46FEF73CFF7B
:1033F0000F990860FFE7D7E240F23F00C2F20000F9
:103400004121017041F68810C2F20000006D10F1F8
:10341000150F0BDCFFE741F28C70C2F20000406830
:1034200040F24C01C2F20001086017E041F28C70DA
:10343000C2F20000406840F23F01C2F20001097888
:10344000484340F23E01C2F200010978B0FBF1F0BE
:1034500040F24C01C2F200010860FFE740F24C006C
:10346000C2F20000016840F6EC12C2F200021268DB
:103470004FF461730E90084611461A46FEF7F4FEAB
:103480000E99086090E240F20800C2F200004FF48A
:10349000A56101800088C72807DCFFE740F208002B
:1034A000C2F20000C821018011E040F20800C2F21F
:1034B00000000088B0F5C86F08DDFFE740F20800A3
:1034C000C2F200004FF4C8610180FFE7FFE741F658
:1034D0008810C2F20000006D40F20801C2F2000143
:1034E000098888423DDDFFE740F21000C2F200008B
:1034F000008841F68811C2F20001096D01290D9082
:1035000007DBFFE741F68810C2F20000006D0C9067
:1035100007E041F68810C2F20000006D40420C90B6
:10352000FFE70C9840F20801C2F200010988401A36
:1035300000EB80000D9901EB400040F24C02C2F21A
:1035400000021060106840F6EC13C2F20003196824
:1035500040F2DC530B921A46FEF786FE0B99086088
:1035600019E040F20600C2F20000008840F24C016F
:10357000C2F200010860086840F6EC12C2F20002D4
:1035800012684FF480730A9111461A46FEF76CFEDA
:103590000A990860FFE707E241F68810C2F20000CE
:1035A000D0F87801012808DBFFE741F68810C2F265
:1035B0000000D0F87801099008E041F68810C2F2C6
:1035C0000000D0F8780140420990FFE7099840F2E6
:1035D0003C01C2F200010988401A40F20A01C2F21D
:1035E00000010988401A41F22421C2F2000108605A
:1035F0000868012818DBFFE740F21000C2F2000063
:10360000008841F22421C2F20001096841F28C7263
:10361000C2F200025268514300EB513040F24C01BB
:10362000C2F2000108600AE040F21000C2F200009D
:10363000008840F24C01C2F200010860FFE740F24E
:103640004C00C2F20000006843F6E151884208D302
:10365000FFE740F24C00C2F2000043F6E051016087
:10366000FFE7A1E1A0E140F21000C2F200000088F3
:1036700040F24C01C2F20001086095E140F6C91029
:10368000C2F2000090F9000000281FD1FFE740F6C9
:10369000C910C2F200000121017041F68810C2F287
:1036A0000000D0F88410D0F87821891AC0F884106E
:1036B00040F24C00C2F2000046F2A811016040F254
:1036C000CC00C2F2000000210160FFE76CE141F68E
:1036D0008810C2F200000F2180F8431000210182FF
:1036E000C18140F2CC00C2F20000016040F614003B
:1036F000C4F201004FF48051016055E141F6881099
:10370000C2F200000F2180F8431000210182C18124
:1037100040F2D100C2F2000090F90000002818D158
:10372000FFE740F2D100C2F200000121017041F236
:103730008C70C2F200005521017041F2AC70C2F2EF
:103740000000017040F2CC00C2F2000000210160D4
:10375000FFE729E141F28C70C2F20000FE21017006
:1037600041F2AC70C2F20000017040F21001C2F2EE
:1037700000010A8842600988816041F68810C2F21F
:1037800000000021C0F88410C0F8801041F23072AF
:10379000C2F20002516140F6D012C2F20002116082
:1037A00040F2CC02C2F20002116040F6C912C2F22D
:1037B0000002117040F2D102C2F20002117040F614
:1037C0001001C4F201014FF480520A6048F28001F6
:1037D000C0F60101089001F027FB089800F0A6FF51
:1037E000E2E041F68810C2F20000D0F8801040F20A
:1037F0003C02C2F200021288891AC0F8841000212B
:10380000C0F8801041F23072C2F2000251611222FF
:1038100080F8432041F2F860C2F20000027841F2E1
:103820008C73C2F200031A70007841F2AC72C2F2DB
:103830000002107040F6D010C2F20000016040F2A9
:10384000CC00C2F200000160AEE041F68810C2F286
:103850000000112180F8431040F20E01C2F2000175
:1038600009884942C165B0F90C00B0F5166F0ADC51
:10387000FFE741F68810C2F20000B0F90C0010F525
:10388000166F40DAFFE740F2CC00C2F20000016898
:10389000013101600068332834D3FFE740F21000A3
:1038A000C2F20000008841F28C71C2F2000148604F
:1038B00041F68810C2F20000D0F8802040F23C03AC
:1038C000C2F200031B88D21AC0F884200022C0F87C
:1038D000802041F23073C2F200035A61122380F853
:1038E00043300A7041F2AC70C2F20000027040F640
:1038F000D010C2F20000026040F2CC00C2F2000020
:103900000260FFE706E040F2CC00C2F200000021B6
:103910000160FFE748E041F68810C2F20000EE21A6
:1039200080F8431040E041F68810C2F200001021F8
:1039300080F8431038E041F68810C2F200001121EF
:1039400080F8431030E041F68810C2F200001221E6
:1039500080F8431028E041F68810C2F200000021F0
:10396000C1810182C165C0F8841040F2CC00C2F26E
:1039700000000168013101600068C92812D3FFE727
:1039800041F28C70C2F20000EE21017041F2AC7085
:10399000C2F20000017040F2CC00C2F2000000212F
:1039A0000160FFE700E0FFE741F68810C2F2000087
:1039B00090F84300122840F06E82FFE740F6C910ED
:1039C000C2F2000090F90000012800F05582FFE7E4
:1039D00040F24C00C2F20000006840F21001C2F256
:1039E0000001098888420BD2FFE740F21000C2F2C2
:1039F0000000008840F24C01C2F200010860FFE7BD
:103A000040F22800C2F20000008841F68811C2F29C
:103A10000001C1F86801D1F8800040F20A01C2F249
:103A20000001098840F21202C2F200021288114419
:103A300088424EDAFFE741F68810C2F20000D0F863
:103A4000800040F20A01C2F200010988884240DD8C
:103A5000FFE741F28C70C2F200000078032838D0F2
:103A6000FFE741F28C70C2F200000078042830D0E9
:103A7000FFE741F28C70C2F20000406840F2100192
:103A8000C2F200010988884222D9FFE740F2100003
:103A9000C2F20000008841F68811C2F20001D1F89C
:103AA000801040F20A02C2F200021288891A40F223
:103AB0004C02C2F2000213681B1A594340F212036F
:103AC000C2F200031B88B1FBF3F108441060FFE76A
